{
  "contractName": "EthApplicationRegistrar",
  "abi": [
    {
      "constant": false,
      "inputs": [
        {
          "name": "_applicant",
          "type": "address"
        },
        {
          "name": "_approver",
          "type": "address"
        }
      ],
      "name": "applicationApproved",
      "outputs": [],
      "payable": false,
      "stateMutability": "nonpayable",
      "type": "function"
    },
    {
      "constant": true,
      "inputs": [],
      "name": "duration",
      "outputs": [
        {
          "name": "",
          "type": "uint256"
        }
      ],
      "payable": false,
      "stateMutability": "view",
      "type": "function"
    },
    {
      "constant": false,
      "inputs": [
        {
          "name": "_account",
          "type": "address"
        }
      ],
      "name": "processWithdrawalForAccount",
      "outputs": [],
      "payable": false,
      "stateMutability": "nonpayable",
      "type": "function"
    },
    {
      "constant": true,
      "inputs": [
        {
          "name": "_member",
          "type": "address"
        }
      ],
      "name": "isMembershipAllowed",
      "outputs": [
        {
          "name": "",
          "type": "bool"
        }
      ],
      "payable": false,
      "stateMutability": "view",
      "type": "function"
    },
    {
      "constant": false,
      "inputs": [],
      "name": "withdrawApplication",
      "outputs": [],
      "payable": false,
      "stateMutability": "nonpayable",
      "type": "function"
    },
    {
      "constant": false,
      "inputs": [],
      "name": "withdraw",
      "outputs": [],
      "payable": false,
      "stateMutability": "nonpayable",
      "type": "function"
    },
    {
      "constant": false,
      "inputs": [],
      "name": "purchaseMembership",
      "outputs": [],
      "payable": true,
      "stateMutability": "payable",
      "type": "function"
    },
    {
      "constant": true,
      "inputs": [],
      "name": "membershipContract",
      "outputs": [
        {
          "name": "",
          "type": "address"
        }
      ],
      "payable": false,
      "stateMutability": "view",
      "type": "function"
    },
    {
      "constant": true,
      "inputs": [
        {
          "name": "",
          "type": "address"
        }
      ],
      "name": "escrow",
      "outputs": [
        {
          "name": "",
          "type": "uint256"
        }
      ],
      "payable": false,
      "stateMutability": "view",
      "type": "function"
    },
    {
      "constant": true,
      "inputs": [],
      "name": "applications",
      "outputs": [
        {
          "name": "",
          "type": "address"
        }
      ],
      "payable": false,
      "stateMutability": "view",
      "type": "function"
    },
    {
      "constant": true,
      "inputs": [],
      "name": "owner",
      "outputs": [
        {
          "name": "",
          "type": "address"
        }
      ],
      "payable": false,
      "stateMutability": "view",
      "type": "function"
    },
    {
      "constant": false,
      "inputs": [
        {
          "name": "_applicant",
          "type": "address"
        },
        {
          "name": "_approver",
          "type": "address"
        }
      ],
      "name": "applicationRejected",
      "outputs": [],
      "payable": false,
      "stateMutability": "nonpayable",
      "type": "function"
    },
    {
      "constant": true,
      "inputs": [],
      "name": "price",
      "outputs": [
        {
          "name": "",
          "type": "uint256"
        }
      ],
      "payable": false,
      "stateMutability": "view",
      "type": "function"
    },
    {
      "constant": false,
      "inputs": [
        {
          "name": "_price",
          "type": "uint256"
        }
      ],
      "name": "changePrice",
      "outputs": [],
      "payable": false,
      "stateMutability": "nonpayable",
      "type": "function"
    },
    {
      "constant": false,
      "inputs": [
        {
          "name": "_owner",
          "type": "address"
        }
      ],
      "name": "changeOwner",
      "outputs": [],
      "payable": false,
      "stateMutability": "nonpayable",
      "type": "function"
    },
    {
      "constant": false,
      "inputs": [
        {
          "name": "_duration",
          "type": "uint256"
        }
      ],
      "name": "changeDuration",
      "outputs": [],
      "payable": false,
      "stateMutability": "nonpayable",
      "type": "function"
    },
    {
      "constant": true,
      "inputs": [
        {
          "name": "",
          "type": "address"
        }
      ],
      "name": "balance",
      "outputs": [
        {
          "name": "",
          "type": "uint256"
        }
      ],
      "payable": false,
      "stateMutability": "view",
      "type": "function"
    },
    {
      "inputs": [
        {
          "name": "_membershipContract",
          "type": "address"
        },
        {
          "name": "_applications",
          "type": "address"
        },
        {
          "name": "_price",
          "type": "uint256"
        },
        {
          "name": "_duration",
          "type": "uint256"
        }
      ],
      "payable": false,
      "stateMutability": "nonpayable",
      "type": "constructor"
    },
    {
      "payable": true,
      "stateMutability": "payable",
      "type": "fallback"
    },
    {
      "anonymous": false,
      "inputs": [
        {
          "indexed": false,
          "name": "owner",
          "type": "address"
        },
        {
          "indexed": false,
          "name": "oldPrice",
          "type": "uint256"
        },
        {
          "indexed": false,
          "name": "newPrice",
          "type": "uint256"
        }
      ],
      "name": "PriceChanged",
      "type": "event"
    },
    {
      "anonymous": false,
      "inputs": [
        {
          "indexed": false,
          "name": "owner",
          "type": "address"
        },
        {
          "indexed": false,
          "name": "oldDuration",
          "type": "uint256"
        },
        {
          "indexed": false,
          "name": "newDuration",
          "type": "uint256"
        }
      ],
      "name": "DurationChanged",
      "type": "event"
    },
    {
      "anonymous": false,
      "inputs": [
        {
          "indexed": false,
          "name": "member",
          "type": "address"
        },
        {
          "indexed": false,
          "name": "price",
          "type": "uint256"
        }
      ],
      "name": "MembershipRequested",
      "type": "event"
    },
    {
      "anonymous": false,
      "inputs": [
        {
          "indexed": false,
          "name": "member",
          "type": "address"
        },
        {
          "indexed": false,
          "name": "price",
          "type": "uint256"
        },
        {
          "indexed": false,
          "name": "duration",
          "type": "uint256"
        },
        {
          "indexed": false,
          "name": "expiry",
          "type": "uint256"
        }
      ],
      "name": "MembershipPurchased",
      "type": "event"
    },
    {
      "anonymous": false,
      "inputs": [
        {
          "indexed": false,
          "name": "member",
          "type": "address"
        },
        {
          "indexed": false,
          "name": "refunded",
          "type": "uint256"
        }
      ],
      "name": "MembershipRejected",
      "type": "event"
    },
    {
      "anonymous": false,
      "inputs": [
        {
          "indexed": false,
          "name": "member",
          "type": "address"
        },
        {
          "indexed": false,
          "name": "refunded",
          "type": "uint256"
        }
      ],
      "name": "MembershipRequestWithdrawn",
      "type": "event"
    },
    {
      "anonymous": false,
      "inputs": [
        {
          "indexed": false,
          "name": "account",
          "type": "address"
        },
        {
          "indexed": false,
          "name": "amount",
          "type": "uint256"
        },
        {
          "indexed": false,
          "name": "balance",
          "type": "uint256"
        }
      ],
      "name": "FundsWithdrawn",
      "type": "event"
    },
    {
      "anonymous": false,
      "inputs": [
        {
          "indexed": true,
          "name": "oldOwner",
          "type": "address"
        },
        {
          "indexed": true,
          "name": "newOwner",
          "type": "address"
        }
      ],
      "name": "OwnerChanged",
      "type": "event"
    }
  ],
  "bytecode": "0x6060604052341561000f57600080fd5b60405160808061193983398101604052808051906020019091908051906020019091908051906020019091908051906020019091905050336000806101000a81548173ffffffffffffffffffffffffffffffffffffffff021916908373ffffffffffffffffffffffffffffffffffffffff16021790555083600160006101000a81548173ffffffffffffffffffffffffffffffffffffffff021916908373ffffffffffffffffffffffffffffffffffffffff16021790555082600460006101000a81548173ffffffffffffffffffffffffffffffffffffffff021916908373ffffffffffffffffffffffffffffffffffffffff160217905550816002819055508060038190555050505050611810806101296000396000f3006060604052600436106100f1576000357c0100000000000000000000000000000000000000000000000000000000900463ffffffff16806303e3b1ed146100fb5780630fb5a6b41461015357806313c2beff1461017c578063189eeebe146101b55780631fcf55ff146102065780633ccfd60b1461021b57806347bbe8671461023057806351ec8d1e1461023a57806357d3c7c31461028f5780637ce5e82f146102dc5780638da5cb5b146103315780639371c36914610386578063a035b1fe146103de578063a2b40d1914610407578063a6f9dae11461042a578063b594f08614610463578063e3d670d714610486575b6100f96104d3565b005b341561010657600080fd5b610151600480803573ffffffffffffffffffffffffffffffffffffffff1690602001909190803573ffffffffffffffffffffffffffffffffffffffff16906020019091905050610771565b005b341561015e57600080fd5b610166610bdd565b6040518082815260200191505060405180910390f35b341561018757600080fd5b6101b3600480803573ffffffffffffffffffffffffffffffffffffffff16906020019091905050610be3565b005b34156101c057600080fd5b6101ec600480803573ffffffffffffffffffffffffffffffffffffffff16906020019091905050610d6a565b604051808215151515815260200191505060405180910390f35b341561021157600080fd5b610219610e6b565b005b341561022657600080fd5b61022e611227565b005b6102386104d3565b005b341561024557600080fd5b61024d611232565b604051808273ffffffffffffffffffffffffffffffffffffffff1673ffffffffffffffffffffffffffffffffffffffff16815260200191505060405180910390f35b341561029a57600080fd5b6102c6600480803573ffffffffffffffffffffffffffffffffffffffff16906020019091905050611258565b6040518082815260200191505060405180910390f35b34156102e757600080fd5b6102ef611270565b604051808273ffffffffffffffffffffffffffffffffffffffff1673ffffffffffffffffffffffffffffffffffffffff16815260200191505060405180910390f35b341561033c57600080fd5b610344611296565b604051808273ffffffffffffffffffffffffffffffffffffffff1673ffffffffffffffffffffffffffffffffffffffff16815260200191505060405180910390f35b341561039157600080fd5b6103dc600480803573ffffffffffffffffffffffffffffffffffffffff1690602001909190803573ffffffffffffffffffffffffffffffffffffffff169060200190919050506112bb565b005b34156103e957600080fd5b6103f161151a565b6040518082815260200191505060405180910390f35b341561041257600080fd5b6104286004808035906020019091905050611520565b005b341561043557600080fd5b610461600480803573ffffffffffffffffffffffffffffffffffffffff169060200190919050506115fa565b005b341561046e57600080fd5b61048460048080359060200190919050506116f2565b005b341561049157600080fd5b6104bd600480803573ffffffffffffffffffffffffffffffffffffffff169060200190919050506117cc565b6040518082815260200191505060405180910390f35b6104dc33610d6a565b15156104e757600080fd5b600460009054906101000a900473ffffffffffffffffffffffffffffffffffffffff1673ffffffffffffffffffffffffffffffffffffffff1663a81a3e4d336000604051602001526040518263ffffffff167c0100000000000000000000000000000000000000000000000000000000028152600401808273ffffffffffffffffffffffffffffffffffffffff1673ffffffffffffffffffffffffffffffffffffffff168152602001915050602060405180830381600087803b15156105ac57600080fd5b6102c65a03f115156105bd57600080fd5b505050604051805190501515156105d357600080fd5b600254341415156105e357600080fd5b600254600560003373ffffffffffffffffffffffffffffffffffffffff1673ffffffffffffffffffffffffffffffffffffffff16815260200190815260200160002060008282540192505081905550600460009054906101000a900473ffffffffffffffffffffffffffffffffffffffff1673ffffffffffffffffffffffffffffffffffffffff16632611341b336040518263ffffffff167c0100000000000000000000000000000000000000000000000000000000028152600401808273ffffffffffffffffffffffffffffffffffffffff1673ffffffffffffffffffffffffffffffffffffffff168152602001915050600060405180830381600087803b15156106ee57600080fd5b6102c65a03f115156106ff57600080fd5b5050507fb6182f67d466f39bf82aad7780345123ff239d44544bbe5f576f9115d58811b733600254604051808373ffffffffffffffffffffffffffffffffffffffff1673ffffffffffffffffffffffffffffffffffffffff1681526020018281526020019250505060405180910390a1565b6000600460009054906101000a900473ffffffffffffffffffffffffffffffffffffffff1673ffffffffffffffffffffffffffffffffffffffff163373ffffffffffffffffffffffffffffffffffffffff161415156107cf57600080fd5b600560008473ffffffffffffffffffffffffffffffffffffffff1673ffffffffffffffffffffffffffffffffffffffff16815260200190815260200160002054905080600560008573ffffffffffffffffffffffffffffffffffffffff1673ffffffffffffffffffffffffffffffffffffffff1681526020019081526020016000206000828254039250508190555080600660008060009054906101000a900473ffffffffffffffffffffffffffffffffffffffff1673ffffffffffffffffffffffffffffffffffffffff1673ffffffffffffffffffffffffffffffffffffffff16815260200190815260200160002060008282540192505081905550600160009054906101000a900473ffffffffffffffffffffffffffffffffffffffff1673ffffffffffffffffffffffffffffffffffffffff16636111ca21846003546040518363ffffffff167c0100000000000000000000000000000000000000000000000000000000028152600401808373ffffffffffffffffffffffffffffffffffffffff1673ffffffffffffffffffffffffffffffffffffffff16815260200182815260200192505050600060405180830381600087803b151561099257600080fd5b6102c65a03f115156109a357600080fd5b5050507fb75f978cbc4cec9b52790196926704ebc43dec7446bab066f68898b10c7ac0d58382600354600160009054906101000a900473ffffffffffffffffffffffffffffffffffffffff1673ffffffffffffffffffffffffffffffffffffffff166310875ac0886000604051602001526040518263ffffffff167c0100000000000000000000000000000000000000000000000000000000028152600401808273ffffffffffffffffffffffffffffffffffffffff1673ffffffffffffffffffffffffffffffffffffffff168152602001915050602060405180830381600087803b1515610a9157600080fd5b6102c65a03f11515610aa257600080fd5b50505060405180519050604051808573ffffffffffffffffffffffffffffffffffffffff1673ffffffffffffffffffffffffffffffffffffffff16815260200184815260200183815260200182815260200194505050505060405180910390a13073ffffffffffffffffffffffffffffffffffffffff166175306000809054906101000a900473ffffffffffffffffffffffffffffffffffffffff1660405180807f70726f636573735769746864726177616c466f724163636f756e74286164647281526020017f65737329000000000000000000000000000000000000000000000000000000008152506040018273ffffffffffffffffffffffffffffffffffffffff1673ffffffffffffffffffffffffffffffffffffffff16815260200191505060006040518083038160008787f19250505050505050565b60035481565b6000600660008373ffffffffffffffffffffffffffffffffffffffff1673ffffffffffffffffffffffffffffffffffffffff16815260200190815260200160002054905080600660008473ffffffffffffffffffffffffffffffffffffffff1673ffffffffffffffffffffffffffffffffffffffff168152602001908152602001600020600082825403925050819055508173ffffffffffffffffffffffffffffffffffffffff166108fc829081150290604051600060405180830381858888f193505050501515610cb457600080fd5b7ffbc3a599b784fe88772fc5abcc07223f64ca0b13acc341f4fb1e46bef0510eb48282600660008673ffffffffffffffffffffffffffffffffffffffff1673ffffffffffffffffffffffffffffffffffffffff16815260200190815260200160002054604051808473ffffffffffffffffffffffffffffffffffffffff1673ffffffffffffffffffffffffffffffffffffffff168152602001838152602001828152602001935050505060405180910390a15050565b600080600160009054906101000a900473ffffffffffffffffffffffffffffffffffffffff1673ffffffffffffffffffffffffffffffffffffffff166310875ac0846000604051602001526040518263ffffffff167c0100000000000000000000000000000000000000000000000000000000028152600401808273ffffffffffffffffffffffffffffffffffffffff1673ffffffffffffffffffffffffffffffffffffffff168152602001915050602060405180830381600087803b1515610e3257600080fd5b6102c65a03f11515610e4357600080fd5b5050506040518051905090506000811480610e63575062278d0081034210155b915050919050565b6000600460009054906101000a900473ffffffffffffffffffffffffffffffffffffffff1673ffffffffffffffffffffffffffffffffffffffff1663a81a3e4d336000604051602001526040518263ffffffff167c0100000000000000000000000000000000000000000000000000000000028152600401808273ffffffffffffffffffffffffffffffffffffffff1673ffffffffffffffffffffffffffffffffffffffff168152602001915050602060405180830381600087803b1515610f3257600080fd5b6102c65a03f11515610f4357600080fd5b505050604051805190501515610f5857600080fd5b600560003373ffffffffffffffffffffffffffffffffffffffff1673ffffffffffffffffffffffffffffffffffffffff16815260200190815260200160002054905080600560003373ffffffffffffffffffffffffffffffffffffffff1673ffffffffffffffffffffffffffffffffffffffff1681526020019081526020016000206000828254039250508190555080600660003373ffffffffffffffffffffffffffffffffffffffff1673ffffffffffffffffffffffffffffffffffffffff16815260200190815260200160002060008282540192505081905550600460009054906101000a900473ffffffffffffffffffffffffffffffffffffffff1673ffffffffffffffffffffffffffffffffffffffff16638f08e369336040518263ffffffff167c0100000000000000000000000000000000000000000000000000000000028152600401808273ffffffffffffffffffffffffffffffffffffffff1673ffffffffffffffffffffffffffffffffffffffff168152602001915050600060405180830381600087803b15156110f057600080fd5b6102c65a03f1151561110157600080fd5b5050507f4c024c2947f1422136bca68f4619c44125747d2cbc627acd97ba9db92f3155f93382604051808373ffffffffffffffffffffffffffffffffffffffff1673ffffffffffffffffffffffffffffffffffffffff1681526020018281526020019250505060405180910390a13073ffffffffffffffffffffffffffffffffffffffff166175303360405180807f70726f636573735769746864726177616c466f724163636f756e74286164647281526020017f65737329000000000000000000000000000000000000000000000000000000008152506040018273ffffffffffffffffffffffffffffffffffffffff1673ffffffffffffffffffffffffffffffffffffffff16815260200191505060006040518083038160008787f1925050505050565b61123033610be3565b565b600160009054906101000a900473ffffffffffffffffffffffffffffffffffffffff1681565b60056020528060005260406000206000915090505481565b600460009054906101000a900473ffffffffffffffffffffffffffffffffffffffff1681565b6000809054906101000a900473ffffffffffffffffffffffffffffffffffffffff1681565b6000600460009054906101000a900473ffffffffffffffffffffffffffffffffffffffff1673ffffffffffffffffffffffffffffffffffffffff163373ffffffffffffffffffffffffffffffffffffffff1614151561131957600080fd5b600560008473ffffffffffffffffffffffffffffffffffffffff1673ffffffffffffffffffffffffffffffffffffffff16815260200190815260200160002054905080600560008573ffffffffffffffffffffffffffffffffffffffff1673ffffffffffffffffffffffffffffffffffffffff1681526020019081526020016000206000828254039250508190555080600660008573ffffffffffffffffffffffffffffffffffffffff1673ffffffffffffffffffffffffffffffffffffffff168152602001908152602001600020600082825401925050819055507f4f78daf20bdbd747be24789e39aa0af59d21878853845f0e7dcf4dd669704bbf3382604051808373ffffffffffffffffffffffffffffffffffffffff1673ffffffffffffffffffffffffffffffffffffffff1681526020018281526020019250505060405180910390a13073ffffffffffffffffffffffffffffffffffffffff166175308460405180807f70726f636573735769746864726177616c466f724163636f756e74286164647281526020017f65737329000000000000000000000000000000000000000000000000000000008152506040018273ffffffffffffffffffffffffffffffffffffffff1673ffffffffffffffffffffffffffffffffffffffff16815260200191505060006040518083038160008787f19250505050505050565b60025481565b6000809054906101000a900473ffffffffffffffffffffffffffffffffffffffff1673ffffffffffffffffffffffffffffffffffffffff163373ffffffffffffffffffffffffffffffffffffffff1614151561157b57600080fd5b7f4d624906ce6fd4e4b8b649463516ff505029a1903a8cc34bd82b4ca0f9a479de3360025483604051808473ffffffffffffffffffffffffffffffffffffffff1673ffffffffffffffffffffffffffffffffffffffff168152602001838152602001828152602001935050505060405180910390a18060028190555050565b6000809054906101000a900473ffffffffffffffffffffffffffffffffffffffff1673ffffffffffffffffffffffffffffffffffffffff163373ffffffffffffffffffffffffffffffffffffffff1614151561165557600080fd5b806000806101000a81548173ffffffffffffffffffffffffffffffffffffffff021916908373ffffffffffffffffffffffffffffffffffffffff1602179055508073ffffffffffffffffffffffffffffffffffffffff163373ffffffffffffffffffffffffffffffffffffffff167fb532073b38c83145e3e5135377a08bf9aab55bc0fd7c1179cd4fb995d2a5159c60405160405180910390a350565b6000809054906101000a900473ffffffffffffffffffffffffffffffffffffffff1673ffffffffffffffffffffffffffffffffffffffff163373ffffffffffffffffffffffffffffffffffffffff1614151561174d57600080fd5b7fabe82bf94ac08157c0fd88b25b756bb1a7f0d69ed7bfcdc5cbfb07bcafe5d8243360035483604051808473ffffffffffffffffffffffffffffffffffffffff1673ffffffffffffffffffffffffffffffffffffffff168152602001838152602001828152602001935050505060405180910390a18060038190555050565b600660205280600052604060002060009150905054815600a165627a7a723058202929a17e9eb09b6a2edc3bbb8d6540b9dda0704aa9eb5b926f6dabdcc151d9b30029",
  "source": "pragma solidity ^0.4.18;\n\nimport \"./owned.sol\";\nimport \"./ExpiringMembership.sol\";\nimport \"./ApplicationSource.sol\";\nimport \"./Application.sol\";\n\n/**\n * This contract connects to an ExpiringMembership contract and allows the purchase\n * of membership tokens using Ether\n */\ncontract EthApplicationRegistrar is ApplicationSource, owned {\n\n    event PriceChanged(address owner, uint oldPrice, uint newPrice);\n    event DurationChanged(address owner, uint oldDuration, uint newDuration);\n    event MembershipRequested(address member, uint price);\n    event MembershipPurchased(address member, uint price, uint duration, uint expiry);\n    event MembershipRejected(address member, uint refunded);\n    event MembershipRequestWithdrawn(address member, uint refunded);\n    event FundsWithdrawn(address account, uint amount, uint balance);\n\n    /**\n     * The address where we are purchasing membership tokens at\n     */\n    ExpiringMembership public membershipContract;\n\n    /**\n     * The price for purchasing membership using this contract\n     */\n    uint public price;\n\n    /**\n     * The length of time membership, purchased with this contract, will last\n     */\n    uint public duration;\n\n    /**\n     * Address for the contract which managing applications\n     */\n    Application public applications;\n\n    /**\n     * Eschrowed balances in wei\n     */\n    mapping(address => uint) public escrow;\n\n    /**\n     * The withdrawable balances for various addresses in wei\n     */\n    mapping(address => uint) public balance;\n\n    modifier byApplicationsContract() {\n        require(msg.sender == address(applications));\n        _;\n    }\n\n    function EthApplicationRegistrar(ExpiringMembership _membershipContract, Application _applications, uint _price, uint _duration) {\n        owner = msg.sender;\n        membershipContract = _membershipContract;\n        applications = _applications;\n        price = _price;\n        duration = _duration;\n    }\n\n    function changePrice(uint _price) byOwner {\n        PriceChanged(msg.sender, price, _price);\n        price = _price;\n    }\n\n    function changeDuration(uint _duration) byOwner {\n        DurationChanged(msg.sender, duration, _duration);\n        duration = _duration;\n    }\n\n    /**\n     * Purchase a single membership token using Ether. The funds will be placed in escrow first and an application is opened.\n     * The application will be opened if the message contains the amount of Ether indicated by the price, another application is not already\n     * open and any one of the following:\n     * 1. The message sender (or payer) is not a member of the organisation already.\n     * 2. The message sender is a member of the organisation already but their membership\n     *    is closed to expire as defined by the isMembershipAllowed() function\n     */\n    function purchaseMembership() payable {\n        require(isMembershipAllowed(msg.sender));\n        require(!applications.hasOpenApplication(msg.sender));\n        require(msg.value == price);\n        escrow[msg.sender] += price;\n        applications.submitApplication(msg.sender);\n        MembershipRequested(msg.sender, price);\n    }\n\n    function withdrawApplication() {\n        require(applications.hasOpenApplication(msg.sender));\n        var paid = escrow[msg.sender];\n        escrow[msg.sender] -= paid;\n        balance[msg.sender] += paid;\n        applications.withdrawApplication(msg.sender);\n        MembershipRequestWithdrawn(msg.sender, paid);\n\n        // If the following operation fails because we run out of gas, for example,\n        // the applicant will have to withdraw the funds themselves\n        this.call.gas(30000)(\"processWithdrawalForAccount(address)\", msg.sender);\n    }\n\n    /**\n     * Process the specified account's refund. This will send the ether owed to the specified account from this contract.\n     * This function can be executed by anyone but the refunded ether must always go to whoever it belongs to.\n     */\n    function processWithdrawalForAccount(address _account) {\n        var _amount = balance[_account];\n        balance[_account] -= _amount;\n        _account.transfer(_amount);\n        FundsWithdrawn(_account, _amount, balance[_account]);\n    }\n\n    /**\n     * Lets anyone withdraw any funds due to them from this contract\n     */\n    function withdraw() {\n        processWithdrawalForAccount(msg.sender);\n    }\n\n    /**\n     * Determines whether the given address is allowed to purchase membership. This is true\n     * if the address is not already a member of the organisation OR the expiry timestamp\n     * is within the renewal period (ie. 30 days before expiry).\n     */\n    function isMembershipAllowed(address _member) constant returns (bool) {\n        var expiryDate = membershipContract.getMembershipExpiryDate(_member);\n        return expiryDate == 0 || now >= expiryDate - 30 days;\n    }\n\n    function applicationApproved(address _applicant, address _approver) byApplicationsContract {\n        var paid = escrow[_applicant];\n        escrow[_applicant] -= paid;\n        balance[owner] += paid;\n        membershipContract.enroll(_applicant, duration);\n        MembershipPurchased(_applicant, paid, duration, membershipContract.getMembershipExpiryDate(_applicant));\n\n        // If the following operation fails because we run out of gas, for example,\n        // the owner will have to withdraw the funds themselves\n        this.call.gas(30000)(\"processWithdrawalForAccount(address)\", owner);\n    }\n\n    function applicationRejected(address _applicant, address _approver) byApplicationsContract {\n        var paid = escrow[_applicant];\n        escrow[_applicant] -= paid;\n        balance[_applicant] += paid;\n        MembershipRejected(msg.sender, paid);\n\n        // If the following operation fails because we run out of gas, for example,\n        // the applicant will have to process the refund themselves\n        this.call.gas(30000)(\"processWithdrawalForAccount(address)\", _applicant);\n    }\n\n    function() payable {\n        purchaseMembership();\n    }\n\n}",
  "sourcePath": "/home/kyle/dev/sources/eth-membership/contracts/EthApplicationRegistrar.sol",
  "compiler": {
    "name": "solc",
    "version": "0.4.18+commit.9cf6e910.Emscripten.clang"
  },
  "schemaVersion": "1.0.1",
  "updatedAt": "2018-01-06T12:19:56.098Z"
}