{
  "contractName": "ExpiringMembership",
  "abi": [
    {
      "constant": true,
      "inputs": [
        {
          "name": "",
          "type": "address"
        }
      ],
      "name": "members",
      "outputs": [
        {
          "name": "expiryTimestamp",
          "type": "uint256"
        }
      ],
      "payable": false,
      "stateMutability": "view",
      "type": "function"
    },
    {
      "constant": true,
      "inputs": [
        {
          "name": "_member",
          "type": "address"
        }
      ],
      "name": "getMembershipExpiryDate",
      "outputs": [
        {
          "name": "",
          "type": "uint256"
        }
      ],
      "payable": false,
      "stateMutability": "view",
      "type": "function"
    },
    {
      "constant": false,
      "inputs": [
        {
          "name": "_member",
          "type": "address"
        },
        {
          "name": "duration",
          "type": "uint256"
        }
      ],
      "name": "enroll",
      "outputs": [],
      "payable": false,
      "stateMutability": "nonpayable",
      "type": "function"
    },
    {
      "constant": false,
      "inputs": [
        {
          "name": "_member",
          "type": "address"
        }
      ],
      "name": "revoke",
      "outputs": [],
      "payable": false,
      "stateMutability": "nonpayable",
      "type": "function"
    },
    {
      "constant": true,
      "inputs": [],
      "name": "owner",
      "outputs": [
        {
          "name": "",
          "type": "address"
        }
      ],
      "payable": false,
      "stateMutability": "view",
      "type": "function"
    },
    {
      "constant": false,
      "inputs": [
        {
          "name": "_registrar",
          "type": "address"
        },
        {
          "name": "description",
          "type": "string"
        }
      ],
      "name": "addRegistrar",
      "outputs": [],
      "payable": false,
      "stateMutability": "nonpayable",
      "type": "function"
    },
    {
      "constant": true,
      "inputs": [
        {
          "name": "_member",
          "type": "address"
        }
      ],
      "name": "isMember",
      "outputs": [
        {
          "name": "",
          "type": "bool"
        }
      ],
      "payable": false,
      "stateMutability": "view",
      "type": "function"
    },
    {
      "constant": false,
      "inputs": [
        {
          "name": "_owner",
          "type": "address"
        }
      ],
      "name": "changeOwner",
      "outputs": [],
      "payable": false,
      "stateMutability": "nonpayable",
      "type": "function"
    },
    {
      "constant": false,
      "inputs": [
        {
          "name": "_registrar",
          "type": "address"
        }
      ],
      "name": "removeRegistrar",
      "outputs": [],
      "payable": false,
      "stateMutability": "nonpayable",
      "type": "function"
    },
    {
      "constant": true,
      "inputs": [
        {
          "name": "",
          "type": "address"
        }
      ],
      "name": "isRegistrar",
      "outputs": [
        {
          "name": "",
          "type": "bool"
        }
      ],
      "payable": false,
      "stateMutability": "view",
      "type": "function"
    },
    {
      "inputs": [],
      "payable": false,
      "stateMutability": "nonpayable",
      "type": "constructor"
    },
    {
      "anonymous": false,
      "inputs": [
        {
          "indexed": true,
          "name": "owner",
          "type": "address"
        },
        {
          "indexed": true,
          "name": "registrar",
          "type": "address"
        },
        {
          "indexed": false,
          "name": "description",
          "type": "string"
        }
      ],
      "name": "RegistrarAdded",
      "type": "event"
    },
    {
      "anonymous": false,
      "inputs": [
        {
          "indexed": true,
          "name": "owner",
          "type": "address"
        },
        {
          "indexed": true,
          "name": "registrar",
          "type": "address"
        }
      ],
      "name": "RegistrarRemoved",
      "type": "event"
    },
    {
      "anonymous": false,
      "inputs": [
        {
          "indexed": true,
          "name": "member",
          "type": "address"
        },
        {
          "indexed": true,
          "name": "registrar",
          "type": "address"
        },
        {
          "indexed": false,
          "name": "duration",
          "type": "uint256"
        },
        {
          "indexed": false,
          "name": "expiryTimestamp",
          "type": "uint256"
        }
      ],
      "name": "NewMemberRegistered",
      "type": "event"
    },
    {
      "anonymous": false,
      "inputs": [
        {
          "indexed": true,
          "name": "member",
          "type": "address"
        },
        {
          "indexed": true,
          "name": "registrar",
          "type": "address"
        },
        {
          "indexed": false,
          "name": "duration",
          "type": "uint256"
        },
        {
          "indexed": false,
          "name": "expiryTimestamp",
          "type": "uint256"
        }
      ],
      "name": "MembershipExtended",
      "type": "event"
    },
    {
      "anonymous": false,
      "inputs": [
        {
          "indexed": true,
          "name": "member",
          "type": "address"
        },
        {
          "indexed": true,
          "name": "revoker",
          "type": "address"
        }
      ],
      "name": "MembershipRevoked",
      "type": "event"
    },
    {
      "anonymous": false,
      "inputs": [
        {
          "indexed": true,
          "name": "oldOwner",
          "type": "address"
        },
        {
          "indexed": true,
          "name": "newOwner",
          "type": "address"
        }
      ],
      "name": "OwnerChanged",
      "type": "event"
    }
  ],
  "bytecode": "0x6060604052341561000f57600080fd5b336000806101000a81548173ffffffffffffffffffffffffffffffffffffffff021916908373ffffffffffffffffffffffffffffffffffffffff160217905550610ccd8061005e6000396000f3006060604052600436106100a4576000357c0100000000000000000000000000000000000000000000000000000000900463ffffffff16806308ae4b0c146100a957806310875ac0146100f65780636111ca211461014357806374a8f103146101855780638da5cb5b146101be5780638e3d530314610213578063a230c5241461028f578063a6f9dae1146102e0578063ba904eed14610319578063d5db72eb14610352575b600080fd5b34156100b457600080fd5b6100e0600480803573ffffffffffffffffffffffffffffffffffffffff169060200190919050506103a3565b6040518082815260200191505060405180910390f35b341561010157600080fd5b61012d600480803573ffffffffffffffffffffffffffffffffffffffff169060200190919050506103c1565b6040518082815260200191505060405180910390f35b341561014e57600080fd5b610183600480803573ffffffffffffffffffffffffffffffffffffffff1690602001909190803590602001909190505061040d565b005b341561019057600080fd5b6101bc600480803573ffffffffffffffffffffffffffffffffffffffff169060200190919050506104e8565b005b34156101c957600080fd5b6101d161064c565b604051808273ffffffffffffffffffffffffffffffffffffffff1673ffffffffffffffffffffffffffffffffffffffff16815260200191505060405180910390f35b341561021e57600080fd5b61028d600480803573ffffffffffffffffffffffffffffffffffffffff1690602001909190803590602001908201803590602001908080601f01602080910402602001604051908101604052809392919081815260200183838082843782019150505050505091905050610671565b005b341561029a57600080fd5b6102c6600480803573ffffffffffffffffffffffffffffffffffffffff16906020019091905050610849565b604051808215151515815260200191505060405180910390f35b34156102eb57600080fd5b610317600480803573ffffffffffffffffffffffffffffffffffffffff1690602001909190505061085e565b005b341561032457600080fd5b610350600480803573ffffffffffffffffffffffffffffffffffffffff16906020019091905050610956565b005b341561035d57600080fd5b610389600480803573ffffffffffffffffffffffffffffffffffffffff16906020019091905050610abf565b604051808215151515815260200191505060405180910390f35b60026020528060005260406000206000915090508060000154905081565b6000600260008373ffffffffffffffffffffffffffffffffffffffff1673ffffffffffffffffffffffffffffffffffffffff168152602001908152602001600020600001549050919050565b6000809054906101000a900473ffffffffffffffffffffffffffffffffffffffff1673ffffffffffffffffffffffffffffffffffffffff163373ffffffffffffffffffffffffffffffffffffffff1614806104b15750600160003373ffffffffffffffffffffffffffffffffffffffff1673ffffffffffffffffffffffffffffffffffffffff16815260200190815260200160002060009054906101000a900460ff165b15156104bc57600080fd5b6104c582610849565b156104d9576104d48282610adf565b6104e4565b6104e38282610be1565b5b5050565b6000809054906101000a900473ffffffffffffffffffffffffffffffffffffffff1673ffffffffffffffffffffffffffffffffffffffff163373ffffffffffffffffffffffffffffffffffffffff16148061058c5750600160003373ffffffffffffffffffffffffffffffffffffffff1673ffffffffffffffffffffffffffffffffffffffff16815260200190815260200160002060009054906101000a900460ff165b151561059757600080fd5b6105a081610849565b15156105a857fe5b42600260008373ffffffffffffffffffffffffffffffffffffffff1673ffffffffffffffffffffffffffffffffffffffff168152602001908152602001600020600001819055503373ffffffffffffffffffffffffffffffffffffffff168173ffffffffffffffffffffffffffffffffffffffff167f82bce7ec90948d952b025ea9b0ffb6619135f201870c12cbd0750e399c91b2d760405160405180910390a350565b6000809054906101000a900473ffffffffffffffffffffffffffffffffffffffff1681565b6000809054906101000a900473ffffffffffffffffffffffffffffffffffffffff1673ffffffffffffffffffffffffffffffffffffffff163373ffffffffffffffffffffffffffffffffffffffff161415156106cc57600080fd5b600160008373ffffffffffffffffffffffffffffffffffffffff1673ffffffffffffffffffffffffffffffffffffffff16815260200190815260200160002060009054906101000a900460ff161561072357610845565b60018060008473ffffffffffffffffffffffffffffffffffffffff1673ffffffffffffffffffffffffffffffffffffffff16815260200190815260200160002060006101000a81548160ff0219169083151502179055508173ffffffffffffffffffffffffffffffffffffffff163373ffffffffffffffffffffffffffffffffffffffff167fe443cfae1e559936e4c5049a178c87e2fe60594df4ca7efa6844ec40739f3b8b836040518080602001828103825283818151815260200191508051906020019080838360005b8381101561080a5780820151818401526020810190506107ef565b50505050905090810190601f1680156108375780820380516001836020036101000a031916815260200191505b509250505060405180910390a35b5050565b6000610854826103c1565b4211159050919050565b6000809054906101000a900473ffffffffffffffffffffffffffffffffffffffff1673ffffffffffffffffffffffffffffffffffffffff163373ffffffffffffffffffffffffffffffffffffffff161415156108b957600080fd5b806000806101000a81548173ffffffffffffffffffffffffffffffffffffffff021916908373ffffffffffffffffffffffffffffffffffffffff1602179055508073ffffffffffffffffffffffffffffffffffffffff163373ffffffffffffffffffffffffffffffffffffffff167fb532073b38c83145e3e5135377a08bf9aab55bc0fd7c1179cd4fb995d2a5159c60405160405180910390a350565b6000809054906101000a900473ffffffffffffffffffffffffffffffffffffffff1673ffffffffffffffffffffffffffffffffffffffff163373ffffffffffffffffffffffffffffffffffffffff161415156109b157600080fd5b600160008273ffffffffffffffffffffffffffffffffffffffff1673ffffffffffffffffffffffffffffffffffffffff16815260200190815260200160002060009054906101000a900460ff161515610a0957610abc565b6000600160008373ffffffffffffffffffffffffffffffffffffffff1673ffffffffffffffffffffffffffffffffffffffff16815260200190815260200160002060006101000a81548160ff0219169083151502179055508073ffffffffffffffffffffffffffffffffffffffff163373ffffffffffffffffffffffffffffffffffffffff167f51f386f5b759b15784371710b08702c499d00565174be6845e2d419bcde4186a60405160405180910390a35b50565b60016020528060005260406000206000915054906101000a900460ff1681565b600081600260008573ffffffffffffffffffffffffffffffffffffffff1673ffffffffffffffffffffffffffffffffffffffff1681526020019081526020016000206000015401905080600260008573ffffffffffffffffffffffffffffffffffffffff1673ffffffffffffffffffffffffffffffffffffffff168152602001908152602001600020600001819055503373ffffffffffffffffffffffffffffffffffffffff168373ffffffffffffffffffffffffffffffffffffffff167f1ddcc5565b7943b63e73e8feaadae2d08bfc711af95370ba1676cdbbbae452ea8484604051808381526020018281526020019250505060405180910390a3505050565b6000814201905080600260008573ffffffffffffffffffffffffffffffffffffffff1673ffffffffffffffffffffffffffffffffffffffff168152602001908152602001600020600001819055503373ffffffffffffffffffffffffffffffffffffffff168373ffffffffffffffffffffffffffffffffffffffff167f6b0d2f704f9b0af605246f10faab6129f9a06e1257e4b19ffe8db6366b6810098484604051808381526020018281526020019250505060405180910390a35050505600a165627a7a7230582022c4c43f8cd4780fbfe1f5ca77239cc4c491bbaf303592a67760a323f1e6f6960029",
  "source": "pragma solidity ^0.4.18;\n\nimport \"./owned.sol\";\n\n/**\n * This smart contract keeps whether addresses are part of an organisation. Membership will expire\n * after a certain time unless it is renewed.\n */\ncontract ExpiringMembership is owned {\n\n    event RegistrarAdded(address indexed owner, address indexed registrar, string description);\n    event RegistrarRemoved(address indexed owner, address indexed registrar);\n    event NewMemberRegistered(address indexed member, address indexed registrar, uint duration, uint expiryTimestamp);\n    event MembershipExtended(address indexed member, address indexed registrar, uint duration, uint expiryTimestamp);\n    event MembershipRevoked(address indexed member, address indexed revoker);\n\n    /**\n     * Membership status of an address. Currently only contains the expiry timestamp\n     * of that membership.\n     */\n    struct Membership {\n        uint expiryTimestamp;\n    }\n\n    /**\n     * Which addresses are considered registrars. These addresses can be personal\n     * accounts or can even be other smart contracts (like the EtherPaymentRegistrar).\n     */\n    mapping(address => bool) public isRegistrar;\n\n    /**\n     * Membership status for Ethereum addresses\n     */\n    mapping(address => Membership) public members;\n\n    /**\n     * Checks that the transaction source is a registrar or this contract's owner\n     */\n    modifier hasRegistrationPrivileges() {\n        require(msg.sender == owner || isRegistrar[msg.sender]);\n        _;\n    }\n\n    /*\n     * Checks that the specified address is currently a member\n     */\n    modifier member(address _member) {\n        require(isMember(_member));\n        _;\n    }\n\n    function ExpiringMembership() {\n        owner = msg.sender;\n    }\n\n    /**\n     * Allows this contract's owner to add a new registrar. The description is\n     * stored in this contract's event log.\n     */\n    function addRegistrar(address _registrar, string description) byOwner {\n        if (isRegistrar[_registrar]) {\n            return;\n        }\n        isRegistrar[_registrar] = true;\n        RegistrarAdded(msg.sender, _registrar, description);\n    }\n\n    /**\n     * Allows this contract's owner to remove a registrar.\n     */\n    function removeRegistrar(address _registrar) byOwner {\n        if (!isRegistrar[_registrar]) {\n            return;\n        }\n        isRegistrar[_registrar] = false;\n        RegistrarRemoved(msg.sender, _registrar);\n    }\n\n    /**\n     * Register or renew an address' membership. The membership token will last\n     * for the given duration amount. When renewing a membership, the expiry date\n     * will be EXTENDED and added to whatever the previous expiry date.\n     *\n     * This function can only be invoked by registrars or this contract's owner.\n     */\n    function enroll(address _member, uint duration) hasRegistrationPrivileges {\n        if (isMember(_member)) {\n           extendMembership(_member, duration);\n        } else {\n           registerNewMember(_member, duration);\n        }\n    }\n\n    /**\n     * Immediately revoke a member's membership.  This function can only be invoked\n     * by registrars or this contract's owner\n     */\n    function revoke(address _member) hasRegistrationPrivileges {\n        assert(isMember(_member));\n        members[_member].expiryTimestamp = now;\n        MembershipRevoked(_member, msg.sender);\n    }\n\n    function extendMembership(address _member, uint duration) private {\n        var expiry = members[_member].expiryTimestamp + duration;\n        members[_member].expiryTimestamp = expiry;\n        MembershipExtended(_member, msg.sender, duration, expiry);\n    }\n\n    function registerNewMember(address _member, uint duration) private {\n        var expiry = now + duration;\n        members[_member].expiryTimestamp = expiry;\n        NewMemberRegistered(_member, msg.sender, duration, expiry);\n    }\n\n    /**\n     * Checks whether the specified address is currently a member\n     */\n    function isMember(address _member) constant returns (bool) {\n        return now <= getMembershipExpiryDate(_member);\n    }\n\n    /**\n     * Returns the expiry timestamp of the specified address' membership. If the\n     * returned value is 0, that address was never a member\n     */\n    function getMembershipExpiryDate(address _member) constant returns (uint) {\n        return members[_member].expiryTimestamp;\n    }\n\n}",
  "sourcePath": "/home/kyle/dev/sources/eth-membership/contracts/ExpiringMembership.sol",
  "compiler": {
    "name": "solc",
    "version": "0.4.18+commit.9cf6e910.Emscripten.clang"
  },
  "schemaVersion": "1.0.1",
  "updatedAt": "2018-01-05T19:01:18.584Z"
}