{
  "contractName": "SingleApproval",
  "abi": [
    {
      "constant": true,
      "inputs": [
        {
          "name": "",
          "type": "address"
        }
      ],
      "name": "approvers",
      "outputs": [
        {
          "name": "",
          "type": "bool"
        }
      ],
      "payable": false,
      "stateMutability": "view",
      "type": "function"
    },
    {
      "constant": false,
      "inputs": [
        {
          "name": "_source",
          "type": "address"
        },
        {
          "name": "description",
          "type": "string"
        }
      ],
      "name": "addApplicationSource",
      "outputs": [],
      "payable": false,
      "stateMutability": "nonpayable",
      "type": "function"
    },
    {
      "constant": false,
      "inputs": [
        {
          "name": "_applicant",
          "type": "address"
        }
      ],
      "name": "submitApplication",
      "outputs": [],
      "payable": false,
      "stateMutability": "nonpayable",
      "type": "function"
    },
    {
      "constant": false,
      "inputs": [
        {
          "name": "_source",
          "type": "address"
        },
        {
          "name": "_applicant",
          "type": "address"
        },
        {
          "name": "description",
          "type": "string"
        }
      ],
      "name": "approveApplication",
      "outputs": [],
      "payable": false,
      "stateMutability": "nonpayable",
      "type": "function"
    },
    {
      "constant": false,
      "inputs": [
        {
          "name": "_approver",
          "type": "address"
        }
      ],
      "name": "removeApprover",
      "outputs": [],
      "payable": false,
      "stateMutability": "nonpayable",
      "type": "function"
    },
    {
      "constant": true,
      "inputs": [
        {
          "name": "source",
          "type": "address"
        },
        {
          "name": "_applicant",
          "type": "address"
        }
      ],
      "name": "hasOpenApplicationFromSource",
      "outputs": [
        {
          "name": "",
          "type": "bool"
        }
      ],
      "payable": false,
      "stateMutability": "view",
      "type": "function"
    },
    {
      "constant": true,
      "inputs": [],
      "name": "owner",
      "outputs": [
        {
          "name": "",
          "type": "address"
        }
      ],
      "payable": false,
      "stateMutability": "view",
      "type": "function"
    },
    {
      "constant": false,
      "inputs": [
        {
          "name": "_source",
          "type": "address"
        }
      ],
      "name": "removeApplicationSource",
      "outputs": [],
      "payable": false,
      "stateMutability": "nonpayable",
      "type": "function"
    },
    {
      "constant": false,
      "inputs": [
        {
          "name": "_applicant",
          "type": "address"
        }
      ],
      "name": "withdrawApplication",
      "outputs": [],
      "payable": false,
      "stateMutability": "nonpayable",
      "type": "function"
    },
    {
      "constant": false,
      "inputs": [
        {
          "name": "_approver",
          "type": "address"
        },
        {
          "name": "description",
          "type": "string"
        }
      ],
      "name": "addApprover",
      "outputs": [],
      "payable": false,
      "stateMutability": "nonpayable",
      "type": "function"
    },
    {
      "constant": false,
      "inputs": [
        {
          "name": "_owner",
          "type": "address"
        }
      ],
      "name": "changeOwner",
      "outputs": [],
      "payable": false,
      "stateMutability": "nonpayable",
      "type": "function"
    },
    {
      "constant": true,
      "inputs": [
        {
          "name": "_applicant",
          "type": "address"
        }
      ],
      "name": "hasOpenApplication",
      "outputs": [
        {
          "name": "",
          "type": "bool"
        }
      ],
      "payable": false,
      "stateMutability": "view",
      "type": "function"
    },
    {
      "constant": true,
      "inputs": [
        {
          "name": "",
          "type": "address"
        }
      ],
      "name": "sources",
      "outputs": [
        {
          "name": "",
          "type": "bool"
        }
      ],
      "payable": false,
      "stateMutability": "view",
      "type": "function"
    },
    {
      "constant": false,
      "inputs": [
        {
          "name": "_source",
          "type": "address"
        },
        {
          "name": "_applicant",
          "type": "address"
        },
        {
          "name": "description",
          "type": "string"
        }
      ],
      "name": "rejectApplication",
      "outputs": [],
      "payable": false,
      "stateMutability": "nonpayable",
      "type": "function"
    },
    {
      "constant": true,
      "inputs": [
        {
          "name": "",
          "type": "address"
        },
        {
          "name": "",
          "type": "address"
        }
      ],
      "name": "applications",
      "outputs": [
        {
          "name": "",
          "type": "bool"
        }
      ],
      "payable": false,
      "stateMutability": "view",
      "type": "function"
    },
    {
      "inputs": [],
      "payable": false,
      "stateMutability": "nonpayable",
      "type": "constructor"
    },
    {
      "anonymous": false,
      "inputs": [
        {
          "indexed": true,
          "name": "owner",
          "type": "address"
        },
        {
          "indexed": true,
          "name": "approver",
          "type": "address"
        },
        {
          "indexed": false,
          "name": "description",
          "type": "string"
        }
      ],
      "name": "ApproverAdded",
      "type": "event"
    },
    {
      "anonymous": false,
      "inputs": [
        {
          "indexed": true,
          "name": "owner",
          "type": "address"
        },
        {
          "indexed": true,
          "name": "approver",
          "type": "address"
        }
      ],
      "name": "ApproverRemoved",
      "type": "event"
    },
    {
      "anonymous": false,
      "inputs": [
        {
          "indexed": true,
          "name": "owner",
          "type": "address"
        },
        {
          "indexed": true,
          "name": "source",
          "type": "address"
        },
        {
          "indexed": false,
          "name": "description",
          "type": "string"
        }
      ],
      "name": "ApplicationSourceAdded",
      "type": "event"
    },
    {
      "anonymous": false,
      "inputs": [
        {
          "indexed": true,
          "name": "owner",
          "type": "address"
        },
        {
          "indexed": true,
          "name": "source",
          "type": "address"
        }
      ],
      "name": "ApplicationSourceRemoved",
      "type": "event"
    },
    {
      "anonymous": false,
      "inputs": [
        {
          "indexed": true,
          "name": "source",
          "type": "address"
        },
        {
          "indexed": true,
          "name": "applicant",
          "type": "address"
        }
      ],
      "name": "ApplicationSubmitted",
      "type": "event"
    },
    {
      "anonymous": false,
      "inputs": [
        {
          "indexed": true,
          "name": "source",
          "type": "address"
        },
        {
          "indexed": true,
          "name": "applicant",
          "type": "address"
        }
      ],
      "name": "ApplicationWithdrawn",
      "type": "event"
    },
    {
      "anonymous": false,
      "inputs": [
        {
          "indexed": true,
          "name": "approver",
          "type": "address"
        },
        {
          "indexed": true,
          "name": "source",
          "type": "address"
        },
        {
          "indexed": true,
          "name": "applicant",
          "type": "address"
        },
        {
          "indexed": false,
          "name": "description",
          "type": "string"
        }
      ],
      "name": "ApplicationRejected",
      "type": "event"
    },
    {
      "anonymous": false,
      "inputs": [
        {
          "indexed": true,
          "name": "approver",
          "type": "address"
        },
        {
          "indexed": true,
          "name": "source",
          "type": "address"
        },
        {
          "indexed": true,
          "name": "applicant",
          "type": "address"
        },
        {
          "indexed": false,
          "name": "description",
          "type": "string"
        }
      ],
      "name": "ApplicationApproved",
      "type": "event"
    },
    {
      "anonymous": false,
      "inputs": [
        {
          "indexed": true,
          "name": "oldOwner",
          "type": "address"
        },
        {
          "indexed": true,
          "name": "newOwner",
          "type": "address"
        }
      ],
      "name": "OwnerChanged",
      "type": "event"
    }
  ],
  "bytecode": "0x6060604052341561000f57600080fd5b336000806101000a81548173ffffffffffffffffffffffffffffffffffffffff021916908373ffffffffffffffffffffffffffffffffffffffff160217905550611ae48061005e6000396000f3006060604052600436106100db576000357c0100000000000000000000000000000000000000000000000000000000900463ffffffff1680630a144391146100e057806316bab8ad146101315780632611341b146101ad57806328fbb45a146101e65780636cf4c88f146102815780638a7c2d6d146102ba5780638da5cb5b1461032a5780638deeecbe1461037f5780638f08e369146103b857806394ffb819146103f1578063a6f9dae11461046d578063a81a3e4d146104a6578063b750bdde146104f7578063cec97c6214610548578063e3edf5c2146105e3575b600080fd5b34156100eb57600080fd5b610117600480803573ffffffffffffffffffffffffffffffffffffffff16906020019091905050610653565b604051808215151515815260200191505060405180910390f35b341561013c57600080fd5b6101ab600480803573ffffffffffffffffffffffffffffffffffffffff1690602001909190803590602001908201803590602001908080601f01602080910402602001604051908101604052809392919081815260200183838082843782019150505050505091905050610673565b005b34156101b857600080fd5b6101e4600480803573ffffffffffffffffffffffffffffffffffffffff1690602001909190505061084b565b005b34156101f157600080fd5b61027f600480803573ffffffffffffffffffffffffffffffffffffffff1690602001909190803573ffffffffffffffffffffffffffffffffffffffff1690602001909190803590602001908201803590602001908080601f01602080910402602001604051908101604052809392919081815260200183838082843782019150505050505091905050610a85565b005b341561028c57600080fd5b6102b8600480803573ffffffffffffffffffffffffffffffffffffffff16906020019091905050610e23565b005b34156102c557600080fd5b610310600480803573ffffffffffffffffffffffffffffffffffffffff1690602001909190803573ffffffffffffffffffffffffffffffffffffffff16906020019091905050610f8c565b604051808215151515815260200191505060405180910390f35b341561033557600080fd5b61033d611020565b604051808273ffffffffffffffffffffffffffffffffffffffff1673ffffffffffffffffffffffffffffffffffffffff16815260200191505060405180910390f35b341561038a57600080fd5b6103b6600480803573ffffffffffffffffffffffffffffffffffffffff16906020019091905050611045565b005b34156103c357600080fd5b6103ef600480803573ffffffffffffffffffffffffffffffffffffffff169060200190919050506111ae565b005b34156103fc57600080fd5b61046b600480803573ffffffffffffffffffffffffffffffffffffffff1690602001909190803590602001908201803590602001908080601f016020809104026020016040519081016040528093929190818152602001838380828437820191505050505050919050506113e7565b005b341561047857600080fd5b6104a4600480803573ffffffffffffffffffffffffffffffffffffffff169060200190919050506115c0565b005b34156104b157600080fd5b6104dd600480803573ffffffffffffffffffffffffffffffffffffffff169060200190919050506116b8565b604051808215151515815260200191505060405180910390f35b341561050257600080fd5b61052e600480803573ffffffffffffffffffffffffffffffffffffffff169060200190919050506116cb565b604051808215151515815260200191505060405180910390f35b341561055357600080fd5b6105e1600480803573ffffffffffffffffffffffffffffffffffffffff1690602001909190803573ffffffffffffffffffffffffffffffffffffffff1690602001909190803590602001908201803590602001908080601f016020809104026020016040519081016040528093929190818152602001838380828437820191505050505050919050506116eb565b005b34156105ee57600080fd5b610639600480803573ffffffffffffffffffffffffffffffffffffffff1690602001909190803573ffffffffffffffffffffffffffffffffffffffff16906020019091905050611a89565b604051808215151515815260200191505060405180910390f35b60026020528060005260406000206000915054906101000a900460ff1681565b6000809054906101000a900473ffffffffffffffffffffffffffffffffffffffff1673ffffffffffffffffffffffffffffffffffffffff163373ffffffffffffffffffffffffffffffffffffffff161415156106ce57600080fd5b600160008373ffffffffffffffffffffffffffffffffffffffff1673ffffffffffffffffffffffffffffffffffffffff16815260200190815260200160002060009054906101000a900460ff161561072557610847565b60018060008473ffffffffffffffffffffffffffffffffffffffff1673ffffffffffffffffffffffffffffffffffffffff16815260200190815260200160002060006101000a81548160ff0219169083151502179055508173ffffffffffffffffffffffffffffffffffffffff163373ffffffffffffffffffffffffffffffffffffffff167f473dbe14789c5449499a62332e29fca7e338f77ce8e38406c6843a2a45347fe8836040518080602001828103825283818151815260200191508051906020019080838360005b8381101561080c5780820151818401526020810190506107f1565b50505050905090810190601f1680156108395780820380516001836020036101000a031916815260200191505b509250505060405180910390a35b5050565b6000600160003373ffffffffffffffffffffffffffffffffffffffff1673ffffffffffffffffffffffffffffffffffffffff16815260200190815260200160002060009054906101000a900460ff16806108f157506000809054906101000a900473ffffffffffffffffffffffffffffffffffffffff1673ffffffffffffffffffffffffffffffffffffffff163373ffffffffffffffffffffffffffffffffffffffff16145b15156108fc57600080fd5b339050600360008273ffffffffffffffffffffffffffffffffffffffff1673ffffffffffffffffffffffffffffffffffffffff16815260200190815260200160002060008373ffffffffffffffffffffffffffffffffffffffff1673ffffffffffffffffffffffffffffffffffffffff16815260200190815260200160002060009054906101000a900460ff1615151561099257fe5b6001600360008373ffffffffffffffffffffffffffffffffffffffff1673ffffffffffffffffffffffffffffffffffffffff16815260200190815260200160002060008473ffffffffffffffffffffffffffffffffffffffff1673ffffffffffffffffffffffffffffffffffffffff16815260200190815260200160002060006101000a81548160ff0219169083151502179055508173ffffffffffffffffffffffffffffffffffffffff168173ffffffffffffffffffffffffffffffffffffffff167f201a1c508c9fef94b7b58ea0808928ebc0be91fc8d35eeadfbd7077180db882360405160405180910390a35050565b600260003373ffffffffffffffffffffffffffffffffffffffff1673ffffffffffffffffffffffffffffffffffffffff16815260200190815260200160002060009054906101000a900460ff1680610b2957506000809054906101000a900473ffffffffffffffffffffffffffffffffffffffff1673ffffffffffffffffffffffffffffffffffffffff163373ffffffffffffffffffffffffffffffffffffffff16145b1515610b3457600080fd5b600360008473ffffffffffffffffffffffffffffffffffffffff1673ffffffffffffffffffffffffffffffffffffffff16815260200190815260200160002060008373ffffffffffffffffffffffffffffffffffffffff1673ffffffffffffffffffffffffffffffffffffffff16815260200190815260200160002060009054906101000a900460ff161515610bc657fe5b6000600360008573ffffffffffffffffffffffffffffffffffffffff1673ffffffffffffffffffffffffffffffffffffffff16815260200190815260200160002060008473ffffffffffffffffffffffffffffffffffffffff1673ffffffffffffffffffffffffffffffffffffffff16815260200190815260200160002060006101000a81548160ff0219169083151502179055508173ffffffffffffffffffffffffffffffffffffffff168373ffffffffffffffffffffffffffffffffffffffff163373ffffffffffffffffffffffffffffffffffffffff167f8e2fffec58aa0cbac732233edf757ddf9e5526343134bd89b12b4ecf693cae39846040518080602001828103825283818151815260200191508051906020019080838360005b83811015610d02578082015181840152602081019050610ce7565b50505050905090810190601f168015610d2f5780820380516001836020036101000a031916815260200191505b509250505060405180910390a48273ffffffffffffffffffffffffffffffffffffffff166303e3b1ed83336040518363ffffffff167c0100000000000000000000000000000000000000000000000000000000028152600401808373ffffffffffffffffffffffffffffffffffffffff1673ffffffffffffffffffffffffffffffffffffffff1681526020018273ffffffffffffffffffffffffffffffffffffffff1673ffffffffffffffffffffffffffffffffffffffff16815260200192505050600060405180830381600087803b1515610e0a57600080fd5b6102c65a03f11515610e1b57600080fd5b505050505050565b6000809054906101000a900473ffffffffffffffffffffffffffffffffffffffff1673ffffffffffffffffffffffffffffffffffffffff163373ffffffffffffffffffffffffffffffffffffffff16141515610e7e57600080fd5b600260008273ffffffffffffffffffffffffffffffffffffffff1673ffffffffffffffffffffffffffffffffffffffff16815260200190815260200160002060009054906101000a900460ff161515610ed657610f89565b6000600260008373ffffffffffffffffffffffffffffffffffffffff1673ffffffffffffffffffffffffffffffffffffffff16815260200190815260200160002060006101000a81548160ff0219169083151502179055508073ffffffffffffffffffffffffffffffffffffffff163373ffffffffffffffffffffffffffffffffffffffff167ffd9a4771ee9b4f95e69b47c9ef2d86cc2228981bc45f7da8a3a906d8b792d1d860405160405180910390a35b50565b6000600360008473ffffffffffffffffffffffffffffffffffffffff1673ffffffffffffffffffffffffffffffffffffffff16815260200190815260200160002060008373ffffffffffffffffffffffffffffffffffffffff1673ffffffffffffffffffffffffffffffffffffffff16815260200190815260200160002060009054906101000a900460ff16905092915050565b6000809054906101000a900473ffffffffffffffffffffffffffffffffffffffff1681565b6000809054906101000a900473ffffffffffffffffffffffffffffffffffffffff1673ffffffffffffffffffffffffffffffffffffffff163373ffffffffffffffffffffffffffffffffffffffff161415156110a057600080fd5b600160008273ffffffffffffffffffffffffffffffffffffffff1673ffffffffffffffffffffffffffffffffffffffff16815260200190815260200160002060009054906101000a900460ff1615156110f8576111ab565b6000600160008373ffffffffffffffffffffffffffffffffffffffff1673ffffffffffffffffffffffffffffffffffffffff16815260200190815260200160002060006101000a81548160ff0219169083151502179055508073ffffffffffffffffffffffffffffffffffffffff163373ffffffffffffffffffffffffffffffffffffffff167ffd9a4771ee9b4f95e69b47c9ef2d86cc2228981bc45f7da8a3a906d8b792d1d860405160405180910390a35b50565b6000600160003373ffffffffffffffffffffffffffffffffffffffff1673ffffffffffffffffffffffffffffffffffffffff16815260200190815260200160002060009054906101000a900460ff168061125457506000809054906101000a900473ffffffffffffffffffffffffffffffffffffffff1673ffffffffffffffffffffffffffffffffffffffff163373ffffffffffffffffffffffffffffffffffffffff16145b151561125f57600080fd5b339050600360008273ffffffffffffffffffffffffffffffffffffffff1673ffffffffffffffffffffffffffffffffffffffff16815260200190815260200160002060008373ffffffffffffffffffffffffffffffffffffffff1673ffffffffffffffffffffffffffffffffffffffff16815260200190815260200160002060009054906101000a900460ff1615156112f457fe5b6000600360008373ffffffffffffffffffffffffffffffffffffffff1673ffffffffffffffffffffffffffffffffffffffff16815260200190815260200160002060008473ffffffffffffffffffffffffffffffffffffffff1673ffffffffffffffffffffffffffffffffffffffff16815260200190815260200160002060006101000a81548160ff0219169083151502179055508173ffffffffffffffffffffffffffffffffffffffff168173ffffffffffffffffffffffffffffffffffffffff167f1d1be4bfb8aca953b25c5018677118325eef3059105f90072653e804aacb047a60405160405180910390a35050565b6000809054906101000a900473ffffffffffffffffffffffffffffffffffffffff1673ffffffffffffffffffffffffffffffffffffffff163373ffffffffffffffffffffffffffffffffffffffff1614151561144257600080fd5b600260008373ffffffffffffffffffffffffffffffffffffffff1673ffffffffffffffffffffffffffffffffffffffff16815260200190815260200160002060009054906101000a900460ff1615611499576115bc565b6001600260008473ffffffffffffffffffffffffffffffffffffffff1673ffffffffffffffffffffffffffffffffffffffff16815260200190815260200160002060006101000a81548160ff0219169083151502179055508173ffffffffffffffffffffffffffffffffffffffff163373ffffffffffffffffffffffffffffffffffffffff167fe1840daeb654f5d5393005bb39b87499e284b558990467fb14a0e2d518e6814f836040518080602001828103825283818151815260200191508051906020019080838360005b83811015611581578082015181840152602081019050611566565b50505050905090810190601f1680156115ae5780820380516001836020036101000a031916815260200191505b509250505060405180910390a35b5050565b6000809054906101000a900473ffffffffffffffffffffffffffffffffffffffff1673ffffffffffffffffffffffffffffffffffffffff163373ffffffffffffffffffffffffffffffffffffffff1614151561161b57600080fd5b806000806101000a81548173ffffffffffffffffffffffffffffffffffffffff021916908373ffffffffffffffffffffffffffffffffffffffff1602179055508073ffffffffffffffffffffffffffffffffffffffff163373ffffffffffffffffffffffffffffffffffffffff167fb532073b38c83145e3e5135377a08bf9aab55bc0fd7c1179cd4fb995d2a5159c60405160405180910390a350565b60006116c43383610f8c565b9050919050565b60016020528060005260406000206000915054906101000a900460ff1681565b600260003373ffffffffffffffffffffffffffffffffffffffff1673ffffffffffffffffffffffffffffffffffffffff16815260200190815260200160002060009054906101000a900460ff168061178f57506000809054906101000a900473ffffffffffffffffffffffffffffffffffffffff1673ffffffffffffffffffffffffffffffffffffffff163373ffffffffffffffffffffffffffffffffffffffff16145b151561179a57600080fd5b600360008473ffffffffffffffffffffffffffffffffffffffff1673ffffffffffffffffffffffffffffffffffffffff16815260200190815260200160002060008373ffffffffffffffffffffffffffffffffffffffff1673ffffffffffffffffffffffffffffffffffffffff16815260200190815260200160002060009054906101000a900460ff16151561182c57fe5b6000600360008573ffffffffffffffffffffffffffffffffffffffff1673ffffffffffffffffffffffffffffffffffffffff16815260200190815260200160002060008473ffffffffffffffffffffffffffffffffffffffff1673ffffffffffffffffffffffffffffffffffffffff16815260200190815260200160002060006101000a81548160ff0219169083151502179055508173ffffffffffffffffffffffffffffffffffffffff168373ffffffffffffffffffffffffffffffffffffffff163373ffffffffffffffffffffffffffffffffffffffff167f82533bc3de0aaca1ae1dc985bfef846ef796994908ad2915b98688f5277de3e1846040518080602001828103825283818151815260200191508051906020019080838360005b8381101561196857808201518184015260208101905061194d565b50505050905090810190601f1680156119955780820380516001836020036101000a031916815260200191505b509250505060405180910390a48273ffffffffffffffffffffffffffffffffffffffff16639371c36983336040518363ffffffff167c0100000000000000000000000000000000000000000000000000000000028152600401808373ffffffffffffffffffffffffffffffffffffffff1673ffffffffffffffffffffffffffffffffffffffff1681526020018273ffffffffffffffffffffffffffffffffffffffff1673ffffffffffffffffffffffffffffffffffffffff16815260200192505050600060405180830381600087803b1515611a7057600080fd5b6102c65a03f11515611a8157600080fd5b505050505050565b60036020528160005260406000206020528060005260406000206000915091509054906101000a900460ff16815600a165627a7a72305820f889338518c38b2e1eb6aabf645d75b7baecf5f8969e6601d663a4dfae1812630029",
  "source": "pragma solidity ^0.4.18;\n\nimport \"./owned.sol\";\nimport \"./Application.sol\";\nimport \"./ApplicationSource.sol\";\n\n/**\n * This contract defines the concept of applications and approvals. An application can be withdrawn by its source.\n *\n * - Application Sources: A set of addresses that can submit applications for approval.\n * - Applicant: The address on whose behalf the application is being made.\n * - Approvers: A set of addresses that can approve applications.\n */\ncontract SingleApproval is Application, owned {\n\n    event ApproverAdded(address indexed owner, address indexed approver, string description);\n    event ApproverRemoved(address indexed owner, address indexed approver);\n    event ApplicationSourceAdded(address indexed owner, address indexed source, string description);\n    event ApplicationSourceRemoved(address indexed owner, address indexed source);\n    event ApplicationSubmitted(address indexed source, address indexed applicant);\n    event ApplicationWithdrawn(address indexed source, address indexed applicant);\n    event ApplicationRejected(address indexed approver, address indexed source, address indexed applicant, string description);\n    event ApplicationApproved(address indexed approver, address indexed source, address indexed applicant, string description);\n\n    mapping(address => bool) public sources;\n\n    mapping(address => bool) public approvers;\n\n    /**\n     * Contains all the open applications currently available\n     */\n    mapping(address => mapping(address => bool)) public applications;\n\n    modifier hasApplicationRights() {\n        require(sources[msg.sender] || msg.sender == owner);\n        _;\n    }\n\n    modifier hasApprovalRights() {\n        require(approvers[msg.sender] || msg.sender == owner);\n        _;\n    }\n\n    function SingleApproval() {\n        owner = msg.sender;\n    }\n\n    function addApprover(address _approver, string description) byOwner {\n        if (approvers[_approver]) {\n            return;\n        }\n        approvers[_approver] = true;\n        ApproverAdded(msg.sender, _approver, description);\n    }\n\n    function removeApprover(address _approver) byOwner {\n        if (!approvers[_approver]) {\n            return;\n        }\n        approvers[_approver] = false;\n        ApproverRemoved(msg.sender, _approver);\n    }\n\n    function addApplicationSource(ApplicationSource _source, string description) byOwner {\n        if (sources[_source]) {\n            return;\n        }\n        sources[_source] = true;\n        ApplicationSourceAdded(msg.sender, _source, description);\n    }\n\n    function removeApplicationSource(ApplicationSource _source) byOwner {\n        if (!sources[_source]) {\n            return;\n        }\n        sources[_source] = false;\n        ApproverRemoved(msg.sender, _source);\n    }\n\n    function submitApplication(address _applicant) hasApplicationRights {\n        var source = msg.sender;\n        assert(!applications[source][_applicant]);\n        applications[source][_applicant] = true;\n        ApplicationSubmitted(source, _applicant);\n    }\n\n    function withdrawApplication(address _applicant) hasApplicationRights {\n        var source = msg.sender;\n        assert(applications[source][_applicant]);\n        applications[source][_applicant] = false;\n        ApplicationWithdrawn(source, _applicant);\n    }\n\n    function hasOpenApplicationFromSource(address source, address _applicant) constant returns (bool) {\n        return applications[source][_applicant];\n    }\n\n    function hasOpenApplication(address _applicant) constant returns (bool) {\n        return hasOpenApplicationFromSource(msg.sender, _applicant);\n    }\n\n    function rejectApplication(ApplicationSource _source, address _applicant, string description) hasApprovalRights {\n        assert(applications[_source][_applicant]);\n        applications[_source][_applicant] = false;\n        ApplicationRejected(msg.sender, _source, _applicant, description);\n        _source.applicationRejected(_applicant, msg.sender);\n    }\n\n    function approveApplication(ApplicationSource _source, address _applicant, string description) hasApprovalRights {\n        assert(applications[_source][_applicant]);\n        applications[_source][_applicant] = false;\n        ApplicationApproved(msg.sender, _source, _applicant, description);\n        _source.applicationApproved(_applicant, msg.sender);\n    }\n\n}",
  "sourcePath": "/home/kyle/dev/sources/eth-membership/contracts/SingleApproval.sol",
  "compiler": {
    "name": "solc",
    "version": "0.4.18+commit.9cf6e910.Emscripten.clang"
  },
  "schemaVersion": "1.0.1",
  "updatedAt": "2018-01-06T12:19:56.100Z"
}